S013000045464D33322D53656E736F722E733337FD
S1130000002000200D2D0000392D0000392D0000A6
S1130010392D0000392D0000392D0000392D000044
S1130020392D0000392D0000392D0000392D000034
S1130030392D0000392D0000392D0000392D000024
S11300401D130000C5030000392D0000392D0000E8
S1130050DD010000392D000089030000392D000066
S1130060392D0000392D0000392D0000392D0000F4
S1130070E9270000392D0000392D0000392D00003A
S1130080392D0000392D0000392D0000392D0000D4
S1130090392D000010B5064C2378002B07D1054BF1
S11300A0002B02D0044800E000BF0123237010BDE0
S11300B09001002000000000A854000008B5084B7F
S11300C0002B03D00748084900E000BF0748036835
S11300D0002B00D108BD064B002BFBD09847F9E755
S11300E000000000A8540000940100208C010020AE
S11300F000000000164B002B00D1144B9D464022FB
S113010092029A1A924600218B460F461348144ACB
S1130110121A04F086F90F4B002B00D098470E4BAF
S1130120002B00D098470020002104000D000D484A
S1130130002802D00C4800E000BF04F043F920007E
S1130140290000F035FA04F017F9C0460000080051
S113015000200020000000000000000090010020AA
S11301607C020020000000000000000080B500AF09
S113017002F010F9024B181C02F0B6F8BD4680BD1F
S11301803402002080B584B002AF7860074B196850
S11301907A6800230093081C0021002302F050F920
S11301A0012001F0B7F9BD4602B080BD3402002041
S11301B080B582B000AF786039607B683A681A62B3
S11301C0BD4602B080BDC04680B582B000AF786045
S11301D07B689B69181CBD4602B080BD80B582B0A7
S11301E000AF094B181CFFF7EFFF031C7B60064AA6
S11301F07B68101C191CFFF7DBFF044B01221A70EB
S1130200BD4602B080BDC04600200040AC010020C5
S113021080B500AF024B181C01F048FFBD4680BDFD
S11302200000002090B589B000AF3960111CFB1D9F
S1130230021C1A70BB1D0A1C1A70FB1D1B789AB293
S11302400823FB181A800823FB1801225A8008236C
S1130250FB183A685A60BB1D1B789AB20823FB1836
S11302601A810823FB180822BA18DA600823FB183D
S113027000221A820C4B1A681F23FC180823FB184F
S1130280101C191C01F086FF031C23701F23FB188C
S11302901B785BB2002B01D0002300E00123181C63
S11302A0BD4609B090BDC0460000002090B589B09D
S11302B000AF3960111CFB1D021C1A70BB1D0A1C07
S11302C01A70FB1D1B789AB20823FB181A800823A6
S11302D0FB1802225A800823FB183A685A60BB1D97
S11302E01B789AB20823FB181A810E4B1A681F2335
S11302F0FC180823FB18101C191C01F04BFF031CED
S113030023701F23FB181B785BB2002B04D03B68BF
S113031000221A70002300E00123181CBD4609B016
S113032090BDC0460000002080B582B000AF786068
S113033003498E235B007A68CA50BD4602B080BD73
S11303400060004080B500AF034A8A235B00D358A5
S1130350181CBD4680BDC0460060004080B582B018
S113036000AF00237B6007E0064B7A68920000210F
S1130370D1507B6801337B607B680F2BF4DDBD4675
S113038002B080BD3802002080B582B000AFFFF714
S1130390D9FF031C7B60094B181CFFF7C5FF7A6863
S11303A080239B00134006D0054B5B6A002B02D0D0
S11303B0034B5B6A9847BD4602B080BDAAAA000001
S11303C03802002080B582B000AFFFF7BBFF031CEA
S11303D07B600F4B181CFFF7A7FF7A688023DB00B4
S11303E0134006D00B4B9B6A002B02D0094B9B6A2F
S11303F098477B680422134006D0064B9B68002B69
S113040002D0044B9B689847BD4602B080BDC046ED
S1130410555500003802002080B582B000AF021CA0
S11304203960FB1D1A70FB1D1B78002B0DD0FB1DC2
S11304301B78012B09D0FB1D1B78022B05D0FB1D5B
S11304401B78032B01D0FB1D1B780949FB1D1A786F
S11304503B6801209840031C181C131CDB009B18EC
S11304609B00CB1810331860BD4602B080BDC04657
S11304700060004080B500AF022008210422002360
S113048001F0D0F8002009210422002301F0CAF869
S1130490002008210422002301F0C4F8BD4680BDD9
S11304A080B582B000AF021CFB1D1A70FB1D1B78C7
S11304B0012B10D002DC002B05D029E0022B12D036
S11304C0032B15D024E002200821FFF7A5FF2820E4
S11304D0FFF758FE1CE000200921FFF79DFF2820AC
S11304E0FFF750FE14E000200821FFF795FF0FE00E
S11304F002200821FFF790FF00200921FFF78CFF5D
S11305002820FFF73FFE00200821FFF785FFC046A3
S1130510BD4602B080BDC04680B500AF034BDB6C66
S11305201B0EDBB2181CBD4680BDC046B081E00F77
S113053090B583B000AF0C4B01221A64FC1DFFF789
S1130540EBFF031C2370FB1D1B78812B08D8074B82
S1130550074A1A60074B074A126807490A401A609B
S1130560BD4603B090BDC04600000C4018600C406E
S113057005000004E4800C40FFFFFFFE80B500AFDF
S1130580094B00221A70FFF7D3FF084B181C0121F6
S113059000F01AFBFFF7EAFDFFF7E0FEFFF76AFF42
S11305A0FFF736FEBD4680BDAD0100200082040089
S11305B080B584B000AF0F23FB1800221A70214BC2
S11305C000221A701F4B1B78DBB2012B21D0022BA7
S11305D02AD0002B31D1FFF7D1FF0020FFF760FFB5
S11305E0002002F075FC021C0F23FB18511E8A41E7
S11305F01A703A1D3B1C101C191C03F08FFB021CC3
S11306000F23FB18511E8A411A700E4B01221A70D7
S113061017E00020FFF744FF03F03AFB031CBB6024
S1130620084B02221A700CE0FA239B00181CFFF7F7
S1130630A9FD044B01221A7003E0024B00221A7038
S1130640C046BFE7AE01002080B586B000AFF860B9
S1130650B9607A60FB681B687B61BB6801229A40C1
S1130660131CDB431A1C7B691A407B680121194067
S1130670BB6899400B1C1A43FB681A60BD4606B060
S113068080BDC04680B582B000AF786039607B68B9
S11306901A683B68DA40131C01221340181CBD463B
S11306A002B080BD80B584B000AF78607B68002B59
S11306B005D07A6880231B029A4200D8C046786825
S11306C003F00CFC031CDBB21A1C1F239B1AFB60F7
S11306D0FB68181CBD4604B080BDC04680B500AFA1
S11306E0034BDB6C1B0EDBB2181CBD4680BDC04641
S11306F0B081E00F80B582B000AF224B5A69E0238D
S1130700DB0013408022920093421ED0802292008C
S1130710934206D8002B26D08022520093421FD049
S113072027E0C0229200934204D0E022D2009342F8
S11307301CD01EE0FFF7D2FF031E122B02D9124B6E
S11307407B6019E0114B7B6016E0FFF7C7FF031EC7
S1130750122B02D90E4B7B600EE00E4B7B600BE03C
S11307600D4B7B6008E00D4B7B6005E00C4B7B6020
S113077002E000237B60C0467B68181CBD4602B0C3
S113078080BDC04600800C40804F120040420F00E4
S113079040B56400C0CF6A00C0D8A700809FD500D0
S11307A0406F400190B583B000AFFC1C0E4B181C89
S11307B000F004FB031C2370FB1C1B78072B06D0E2
S11307C0092B09D102F0DEFA031C7B6007E0FFF776
S11307D091FF031C7B6002E000237B60C0467B68C2
S11307E0181CBD4603B090BD06000E0080B584B051
S11307F000AF786039600F4B5B6807221340FB60E1
S11308007B680D4A934202D80023FB6005E07B68B5
S11308100A4A934201D80123FB60064B054A5268F9
S113082007218A43111CFA680A435A60BD4604B082
S113083080BDC04600000C400024F4000048E801DC
S113084080B582B000AF0D4BDA6BFB1D511E8A419F
S11308501A700A4B0A4ADA6302F08CFA031C181C59
S11308600021FFF7C3FFFB1D1B78002B02D0034BB5
S11308700022DA63BD4602B080BDC04600000C40D1
S1130880711B000080B584B000AF786039600D4BF7
S1130890DA6B0F23FB18511E8A411A70094B0A4A5E
S11308A0DA637A683B68101C191CFFF79FFF0F235B
S11308B0FB181B78002B02D0024B0022DA63BD46E2
S11308C004B080BD00000C40711B000080B584B0F2
S11308D000AF78600023BB607B68364A934206D041
S11308E0354A934203D0354A934200D000E0C046D3
S11308F07B68181C00F062FA031CFB607B682D4ABD
S113090093420CD02C4A934210D02C4A934200D0EC
S113091013E02B4B9B6A03221340FB600DE0284B32
S11309209B6A0C2213409B08FB6006E0244B9B6AE5
S1130930302213401B09FB60C046FB68012B05D025
S113094014D3022B07D0032B0AD02BE002F0A6FA13
S1130950031CBB6029E002F0B1FA031CBB6024E075
S113096002F0ECF9031C5B08BB601EE00023BB60D3
S11309707B68124A934203D07B680E4A934210D19B
S11309800F4B9A6A7B680D498B4201D1102300E01A
S11309901423DA40131E04D002F088FA031CBB604F
S11309A003E002E00023BB60C046BB68181CBD46E0
S11309B004B080BD030020000400220002001E00D9
S11309C000800C4080B582B000AF7860074B5B6D4F
S11309D00122134000D005E0C046044B1B6D7A6829
S11309E01340FAD1BD4602B080BDC04600800C4021
S11309F090B583B000AFFC1C164B181C00F0DEF958
S1130A00031C2370FB1C1B78032B0DD002DC022B70
S1130A1005D017E0092B10D00A2B0AD012E002F0FF
S1130A204DFA031C7B6010E002F038FA031C7B6073
S1130A300BE0094B1B687B6007E002F0A3F9031C81
S1130A407B6002E000237B60C0467B68181CBD46C7
S1130A5003B090BD073326001800002080B500AF16
S1130A60BD4680BD80B500AFBD4680BD80B584B0B5
S1130A7000AF786039607B681B090F221340FB606C
S1130A80FB68092B00D991E0FB689A00494BD31805
S1130A901B689F463B68002B03D03B68082B00D89B
S1130AA0C046FFF7CDFE444B434A12684349114008
S1130AB03A68013A92030A431A6002F03FF9031CB0
S1130AC0BB60BB68181C0021FFF7DCFE6FE03B68CD
S1130AD0002B05D03A6880239B009A4200D8C04678
S1130AE03B68181CFFF7DEFD031C3B60324B324AA7
S1130AF092680F218A43111C3A680A439A6056E0AF
S1130B003B68002B05D03A6880239B009A4200D8AA
S1130B10C046FFF795FE3B68181CFFF7C3FD031C96
S1130B203B60254B244A52680F218A43111C3A68C2
S1130B300A435A6002F002F9031CBB60BB68181C2C
S1130B400021FFF79FFE32E07B681D4A934200D0EC
S1130B5012E00420FFF736FF3B68181CFFF7A2FDE4
S1130B60031C3B60144B144A926E0F218A43111CE0
S1130B703A680A439A66C04619E07B68114A934270
S1130B8000D012E04020FFF71DFF3B68181CFFF760
S1130B9089FD031C3B60084B074A126F03218A43FB
S1130BA0111C3A680A431A67C04600E0C046BD46B5
S1130BB004B080BDA852000000800C40FF3FFEFF3F
S1130BC08006120090071A0080B586B000AF7860E6
S1130BD00A1CFB1C1A7000233B617B681B0A0F2252
S1130BE013400A2B36D89A001C4BD3181B689F4617
S1130BF01B4B7B6118E01B4B7B6115E01A4B7B613F
S1130C0012E01A4B7B6101233B610DE0184B7B61C1
S1130C1010233B6108E0174B7B6180235B003B6141
S1130C2002E0154B7B61C0467B681B0B1F221340FF
S1130C30FB603B69002B03D03B69181CFFF7C2FE25
S1130C40FB1C1B787969FA68081C111C1A1CFFF735
S1130C50FBFC00E0C046BD4606B080BDD05200009B
S1130C6040800C4008800C4044800C4058800C406C
S1130C7060800C4064800C4078800C4080B584B067
S1130C8000AF78607A68F8239B03134080225203F4
S1130C90934200D179E080225203934213D88022F8
S1130CA0920293423BD080229202934202D8002BBC
S1130CB023D074E08022D202934223D0E022120394
S1130CC093425DD06BE0F022520393422CD0F02289
S1130CD05203934208D89022520393422BD0D0223D
S1130CE0520393423DD05AE080229203934231D082
S1130CF09822920393424DD051E002F043F8031C32
S1130D00FB604FE002F03EF8031CFB60284B9B683D
S1130D100F2213401A1CFB68D340FB6042E002F030
S1130D200DF8031CFB603DE0224B181CFFF7CEFDC1
S1130D30031CFB6036E01F4B181CFFF7C7FD031CA8
S1130D40FB601B4B9B6E0F2213401A1CFB68D340A5
S1130D50FB6027E0184B181CFFF7B8FD031CFB6071
S1130D6020E0154B181CFFF7B1FD031CFB60104B72
S1130D701B6F032213401A1CFB68D340FB6011E075
S1130D80FFF710FD031CFB600CE0FFF7B3FC031C32
S1130D90FB6007E0FFF72CFE031CFB6002E000236E
S1130DA0FB60C046FB68181CBD4604B080BDC0464D
S1130DB000800C4002001E000300200080B584B0B7
S1130DC000AF78600F23FB1801221A707B680F2292
S1130DD01340BB60BB68072B00D9CAE0BB689A000C
S1130DE06A4BD3181B689F46694BDB6A694A1340F8
S1130DF080225201934216D080225201934204D899
S1130E0080221201934213D01CE08022920193426B
S1130E1004D08022D20493420FD013E00F23FB1896
S1130E2002221A7013E00F23FB1803221A700EE03B
S1130E300F23FB1804221A7009E00F23FB180B225E
S1130E401A7004E00F23FB1805221A70C04695E0BF
S1130E504F4B9B6A03221340022B08D0032B0BD069
S1130E60012B0ED10F23FB1803221A7015E00F2358
S1130E70FB1802221A7010E00F23FB1806221A70C6
S1130E800BE0434B9A6A80235B02134004D00F2388
S1130E90FB180C221A7000E0C0466FE03C4B9B6AC2
S1130EA00C221340082B08D00C2B0BD0042B0ED192
S1130EB00F23FB1803221A7015E00F23FB180222DC
S1130EC01A7010E00F23FB1806221A700BE0304B47
S1130ED09A6A80235B03134004D00F23FB180C226F
S1130EE01A7000E0C04649E0294B9B6A3022134047
S1130EF0102B02D0202B05D009E00F23FB1803226E
S1130F001A7009E00F23FB1802221A7004E00F2361
S1130F10FB1801221A70C04630E00F23FB18072289
S1130F201A702BE01A4BDA6AE023DB0213408022AA
S1130F309202934212D08022D202934204D08022A1
S1130F405202934205D00EE00F23FB180A221A70B6
S1130F500EE00F23FB1802221A7009E00F23FB187E
S1130F6003221A7004E00F23FB1801221A70C046F2
S1130F7004E00F23FB1800221A70C0460F23FB184D
S1130F801B78181CBD4604B080BDC046FC5200004E
S1130F9000800C40003C000480B588B000AF78604D
S1130FA00A1CFB1C1A700323FB611B23FB1803227E
S1130FB01A7000233B617B680F221340FB60FB68BF
S1130FC0072B00D9F5E0FB689A007E4BD3181B6809
S1130FD09F46FB1C1B780C2B00D9ECE09A007A4B43
S1130FE0D3181B689F460423FB611B23FB180022B4
S1130FF01A701BE00323FB611B23FB1801221A70E8
S113100014E00223FB611B23FB1802221A700DE07B
S11310100123FB611B23FB1803221A7006E005233E
S1131020FB611B23FB1805221A70C0461B23FB1807
S11310301B78181C0121012200F0D2F8FFF700FCF4
S1131040FFF70CFD614BFA695A6201F077FE031C4D
S1131050BB60BB68181C0021FFF714FCFFF702FDFE
S1131060ACE0FB1C1B780C2B00D9A6E09A00584B73
S1131070D3181B689F4600237B611DE000200121DB
S1131080012200F0ADF802237B6115E0012001216B
S1131090012200F0A5F801237B610DE04D4B181CE3
S11310A002210122FFF7D0FA03237B6104E000232D
S11310B07B6101233B61C046FB68022B0BD1434B90
S11310C0424A926A444911407A6911433A691204C6
S11310D00A439A6272E03D4B3C4A926A3F4911408E
S11310E07A69920011433A6912050A439A6265E0EB
S11310F0FB1C1B78022B07D0032B0DD0012B00D037
S11311005CE000237B610FE000200121012200F05C
S113111067F802237B6107E001200121012200F02E
S11311205FF801237B61C046284B284A926A30212C
S11311308A43111C7A6912010A439A623EE0FB1C3D
S11311401B78032B14D00A2B22D0022B00D035E0BD
S113115000200121012200F043F81C4B40225A6276
S1131160C0461A4BDA6A80235B021340F9D01FE0B1
S113117001200121012200F033F8144B60225A624D
S1131180C046124BDA6A80239B021340F9D00FE069
S113119005200121012200F023F80C4B80225A6221
S11311A0C0460A4BDA6A8023DB021340F9D0C046FA
S11311B004E0C04602E0C04600E0C046BD4608B0B8
S11311C080BDC0461C5300003C53000000800C400E
S11311D07053000040800C40FCFFFEFFF3FFEFFF64
S11311E090B587B000AF041C081C111CFB1D221C09
S11311F01A70BB1D021C1A707B1D0A1C1A70FB1D81
S11312001B78052B4BD89A00274BD3181B689F4695
S113121001233B610223FB6001237B6126E004235D
S11312203B610823FB6003237B611FE010233B61C8
S11312302023FB6005237B6118E040233B6180236E
S1131240FB6007237B6111E080235B003B6180230B
S11312509B00FB6009237B6108E08023DB003B618A
S113126080231B01FB6016237B61C046BB1D1B78DA
S1131270002B10D00D4B3A691A627B1D1B78002B92
S11312800ED0C0460A4A7B69101C191CFFF7FAF9F4
S1131290031EF7D004E0054BFA681A6200E0C0466A
S11312A0BD4607B090BDC046A453000000800C406A
S11312B02C800C4080B582B000AFEFF310833B600C
S11312C03B687B6072B67B68181CBD4602B080BD6B
S11312D080B582B000AF78607B68002B00D162B625
S11312E0BD4602B080BDC04680B582B000AFEFF30A
S11312F010833B603B687B6072B67B68181CBD46FC
S113130002B080BD80B582B000AF78607B68002BEE
S113131000D162B6BD4602B080BDC04690B58BB068
S113132000AF314A80235B01D358BB612E4A2F4B57
S1131330D258BB691340BB612B4B9B6B7B61BB6970
S11313407A6913403B620023FB6147E000237B6220
S113135039E03B6A012213402FD0234B9B683B6149
S113136001227B6A9A40131CFB601F49204AFB68D8
S11313708B507B6A1B013A69D318DB68BB60BB687E
S1131380002B1AD0BB681B7A7B60BB681B7A0122D6
S11313905340DAB2BB681A72BB681B68002B0CD0CE
S11313A0BB681C68796A7B685A1E9341DAB2BB68D1
S11313B05B68081C111C1A1CA0473B6A5B083B6253
S11313C07B6A01337B623B6A002BC2D17B69DB43BE
S11313D0BA6913403B62FB690133FB61FB69012B72
S11313E0B4DDBD460BB090BD00200C400C100000D5
S11313F00810000080B500AF01F0A0FCBD4680BD20
S113140080B500AF024A84230021D150BD4680BD7F
S113141000800C4080B500AF024A84230249D150B9
S1131420BD4680BD00800C400E58000080B584B0DD
S113143000AF021CFB1D1A70FB1D1B78002B0BD187
S1131440314BDA6A314B1A601120FFF7B7FC031CE9
S11314501A1C2F4B1A7054E02B4A8423D3580122B0
S11314601340FB60FFF7D6FF0023BB60274B1B68CC
S113147001221340BA681343BB60244B1B6810223B
S11314801340BA681343BB60204B1B6840221340CF
S1131490BA681343BB601D4B1B6804221340BA682F
S11314A01343BB60194B1A6880235B001340BA686E
S11314B01343BB60154B1A6880239B03134002D06F
S11314C08023DB0000E00023BA681343BB600E4BAB
S11314D0BA681A620E4B1B78052B05D00C4B1B788F
S11314E01120191CFFF758FD084B1B6801221340FB
S11314F002D1054B02221A62FB68002B01D0FFF7D0
S11315007FFFBD4604B080BD00800C40B0010020C8
S1131510B401002080B584B000AF021CFB1D1A701A
S1131520FB1D1B78002B02D00020FFF77FFF0E4B22
S11315300D4A126904210A431A61FFF7BBFE031C1A
S1131540FB6003F0A9FEFB68181CFFF7C1FEFB1D3E
S11315501B78002B03D00120FFF768FF01E0FFF7A1
S113156049FFBD4604B080BD00ED00E080B582B007
S113157000AF021C3960FB1D1A70FB1D1B78002B89
S11315800DD0FB1D1B78012B09D0FB1D1B78022BF2
S113159005D0FB1D1B78032B01D0FB1D1B780949CB
S11315A0FB1D1A783B6801209840031C181C131C6F
S11315B0DB009B189B00CB1810335860BD4602B06B
S11315C080BDC0460060004080B582B000AF021C00
S11315D03960FB1D1A70FB1D1B78002B0DD0FB1D01
S11315E01B78012B09D0FB1D1B78022B05D0FB1D9A
S11315F01B78032B01D0FB1D1B780949FB1D1A78AE
S11316003B6801209840031C181C131CDB009B182A
S11316109B00CB1810331860BD4602B080BDC04695
S113162000600040B0B584B000AFB960111C7B60AD
S11316300F23FB18021C1A700E23FB180A1C1A70C5
S11316400F23FB181B78002B11D00F23FB181B78DA
S1131650012B0CD00F23FB181B78022B07D00F2370
S1131660FB181B78032B02D00F23FB181B780E23C7
S1131670FB181B78002B13D07B68002B08D00F239A
S1131680FB181A78BB68101C191CFFF79DFF07E0B4
S11316900F23FB181A78BB68101C191CFFF766FF90
S11316A0BB68072B22D8344C0F23FB181A78324816
S11316B00F23FB1819780B1CDB005B189B00C31865
S11316C05B68B9688900081C0F218140C9430B403D
S11316D00E2179180978B868800081401943131CD9
S11316E0DB009B189B00E318596029E0224C0F2370
S11316F0FB181A7820480F23FB1819780B1CDB0001
S11317005B189B00C31808331B68B9681B488446E0
S113171061448900081C0F218140C9430B400E21FC
S113172079180978B868154DAC466044800081404A
S11317301943131CDB009B189B00E3180833196042
S11317400E23FB181B78002B13D17B68002B08D0C9
S11317500F23FB181A78BB68101C191CFFF734FF01
S113176007E00F23FB181A78BB68101C191CFFF73D
S1131770FDFEBD4604B0B0BD00600040F8FFFF3F71
S113178080B582B000AF786039607B683A681A63CC
S1131790BD4602B080BDC04680B586B000AFF860DB
S11317A0B9607A60FB681B687B61BB6801229A4060
S11317B0131CDB431A1C7B691A407B680121194006
S11317C0BB6899400B1C1A43FB681A60BD4606B0FF
S11317D080BDC04680B584B000AFF860B9607A605F
S11317E0FB681B68BA68D2431A407B681A43FB68DB
S11317F01A60BD4604B080BD80B582B000AF786089
S113180001E07B68DB697B68DA6880235B00134056
S1131810F7D1BD4602B080BD90B589B000AFF86085
S1131820B9607A601A1CFB1C1A707B68002B00D10B
S113183079E0FB1CFA1C127803210A401A70FB6839
S11318401B683A4A1A40FB681A60FA68FB1C1B784A
S11318501B021C1CC0239B00101C191C221CFFF71C
S1131860B9FFBB68002B09D1FB68314A934205D10B
S1131870304B181CFFF702FA031CBB6001235B42C8
S1131880BB61FB681B680222134012D0FB1C1B784F
S1131890012B07D0022B08D0002B00D008E0264BE8
S11318A0BB6105E0254BBB6102E0254BBB61C04633
S11318B011E0FB1C1B78012B07D0022B08D0002B56
S11318C000D008E01F4BBB6105E01F4BBB6102E089
S11318D01E4BBB61C046FB1C1B781D4AD35C7B615D
S11318E07B697A6853433B613B69002B00D11AE062
S11318F07B689B00BA68D21A3B69D318013B181C59
S1131900396902F059FA031C013BFB61FB681B684F
S11319100222134004D0FB69002B01D10123FB6197
S1131920FA69FB681A61BD4609B090BDFFFCFFFF70
S113193000A0004000B2040040164000C0D8A70038
S11319408050740180841E0040548900002D3101B0
S1131950BC53000080B582B000AF78600A1CFB1C49
S11319601A707A68FB1C1B78101C00211A1CFFF7E4
S113197013FFBD4602B080BD80B582B000AF786071
S113198039607B6800225A637B68124A181C111C58
S1131990FFF7F6FE7A683B685B78002B01D00023E2
S11319A000E00123101C01211A1CFFF7F5FE3B681F
S11319B059683B689A683B681B7B7868FFF72CFF83
S11319C03B681B787A68101C191CFFF7C3FFBD46DF
S11319D002B080BDFFFF010080B588B000AF786021
S11319E07B68BE4A934205D1BD4BBB61BB699B6812
S11319F07B6101E0FC23FEE17B689B6A3B613A6901
S1131A00C023DB00134014D03A6980239B001340A9
S1131A1003D0BB69FD225A7007E03A698023DB00DA
S1131A20134002D0BB69FE225A70BB6909221A70A6
S1131A30CDE1BB691B78082B00D9C0E19A00A94B02
S1131A40D3181B689F467B695B881A1C10231340BC
S1131A500AD07B691B881B0A9BB21A1C06231340FD
S1131A60F0221343FB610FE07B691B881A1CFE23E1
S1131A701340FB617B695B881A1C0223134003D06B
S1131A80FB6901221343FB61BB6901221A707B6865
S1131A90FA695A627B6801225A6098E13B698022A4
S1131AA013400ED07B68181C8021FFF769FEBB69C8
S1131AB0FF225A70BB6908221A707B6802225A609E
S1131AC032E03B69402213402ED07B68181C402131
S1131AD0FFF756FE7B695B881A1C102313400AD05B
S1131AE0BB6902221A707B691B881A1CFF231A40E7
S1131AF07B685A6218E07B695B881A1C02231340D6
S1131B000ED0BB6907221A70BB691B797A69DB00A6
S1131B10D3181B89012B07D17B6808225A6056E130
S1131B20BB6905221A7051E151E13B6980221340DF
S1131B300ED07B68181C8021FFF722FEBB69FF22B0
S1131B405A70BB6908221A707B6802225A6016E038
S1131B503B694022134012D07B68181C4021FFF7D8
S1131B600FFE7B695B881A1C0223134003D0BB69F8
S1131B7003221A702AE1BB6905221A7026E126E1C4
S1131B807B695B881A1C102313400AD07B691B886D
S1131B901B0A9BB21A1C06231340F0221343FB6159
S1131BA005E07B691B881A1CFE231340FB617B69DB
S1131BB05B881A1C0423134003D0FB6901221343DE
S1131BC0FB61BB6904221A707B6801225A607B683E
S1131BD0FA695A62FBE03B69802213400ED07B68AD
S1131BE0181C8021FFF7CCFDBB69FF225A70BB692A
S1131BF008221A707B6802225A6016E03B69402270
S1131C00134012D07B68181C4021FFF7B9FD7B6993
S1131C105B881A1C0423134003D0BB6907221A7083
S1131C2003E0BB6905221A70D0E0D0E0BB695A8892
S1131C30BB691B797969DB00CB181B899A4224D3D1
S1131C40BB6900225A80BB691B790133DAB2BB69D4
S1131C501A717B695B881A1C0423134003D0BB6987
S1131C6003221A70B2E07B695B881A1C01231340BB
S1131C7003D1BB691B79012B06D9BB6908221A70F1
S1131C807B6802225A60A2E0A0E0BB691B797A69F2
S1131C90DB00D3185A68BB695B88591C88B2B969E0
S1131CA04880D3181B781A1C7B685A62BB690622C9
S1131CB01A708CE03B698022134015D07B68181C95
S1131CC08021FFF75DFDBB69FF225A70BB690822C2
S1131CD01A707B6802225A6013E0C04600A00040DC
S1131CE0B8010020C05300003B694022134008D0D3
S1131CF07B68181C4021FFF743FDBB6905221A705D
S1131D0064E064E03B692022134046D0BB691B7940
S1131D107A69DB00D3181B89FB607B68DA690B23C3
S1131D20FB181A70BB695B881A1EFB689A4210D2B2
S1131D30BB691B797A69DB00D3185A68BB695B8875
S1131D40591C88B2B9694880D3180B22BA18127882
S1131D501A70BB695B881A1EFB689A420CD3FB6835
S1131D60012B02D17B6808225A60BB6908221A70D1
S1131D707B6802225A6010E07B6804225A60FB6888
S1131D80012B0AD9BB695B881A1CFB68013B9A4288
S1131D9003D17B6808225A6019E018E03A6980236D
S1131DA05B0013400AD07A6880235B00101C191C66
S1131DB0FFF7E6FCBB6909221A7008E007E0BB697B
S1131DC0FB225A70BB6909221A7000E014E6BB6951
S1131DD01B78092B0BD17B6800225A63BB695B78A3
S1131DE05BB2012B05D1BB6900225A7001E00123CB
S1131DF001E0BB695B785BB2181CBD4608B080BDCE
S1131E0080B584B000AF786039607B68294A93421A
S1131E1007D1294BFB607B689B680122134005D0E6
S1131E2001E0FC2340E07B6820225A603B685B8829
S1131E301A1C0223134003D03B681B89002B09D0D2
S1131E403B685B881A1C0423134005D03B681B8A3B
S1131E50002B01D1FC2327E0FB6800221A70FB68E9
S1131E6001225A70FB6800225A80FB6800221A7112
S1131E70FB683A689A607B68C0225A607B68181CC9
S1131E80FFF7BAFC7B680D4A181C111CFFF778FC9D
S1131E907B685B6BFC22D2001A437B685A637B68C5
S1131EA0181CFFF799FD031C5BB2181CBD4604B057
S1131EB080BDC04600A00040B8010020FFFF010023
S1131EC080B586B000AFF860B9607A60FB681B68C3
S1131ED07B61BB6801229A40131CDB431A1C7B699B
S1131EE01A407B6801211940BB6899400B1C1A43B6
S1131EF0FB681A60BD4606B080BDC04680B584B09C
S1131F0000AF78607B68002B02D0012B04D007E07F
S1131F10074B9B68FB6006E0054BDB68FB6002E057
S1131F200023FB60C046FB68181CBD4604B080BD9E
S1131F300000084080B584B000AF786039607B68E9
S1131F40002B02D0012B03D008E0064BFB6002E01B
S1131F50054BFB60C046FB683A681A60BD4604B096
S1131F6080BDC046080008400C00084080B582B01F
S1131F7000AF021CFB1D1A70FB1D1B78044A101CC9
S1131F8000211A1CFFF79CFFBD4602B080BDC0466D
S1131F900000084080B584B000AF78607B681B788F
S1131FA0002B02D00123FB6001E00023FB607B686F
S1131FB05B78002B03D0FB6802221343FB607B6831
S1131FC09B78002B03D0FB6804221343FB60034B74
S1131FD0FA681A60BD4604B080BDC04600000840DF
S1131FE080B500AF0020FFF7C1FF0120FFF7BEFF5F
S1131FF0BD4680BD80B582B000AF021C3960FB1DB8
S11320001A70FB1D1B78002B0DD0FB1D1B78012BB8
S113201009D0FB1D1B78022B05D0FB1D1B78032B5D
S113202001D0FB1D1B780949FB1D1A783B68012070
S11320309840031C181C131CDB009B189B00CB1836
S113204010335860BD4602B080BDC04600600040F9
S113205080B582B000AF021C3960FB1D1A70FB1DF5
S11320601B78002B0DD0FB1D1B78012B09D0FB1D09
S11320701B78022B05D0FB1D1B78032B01D0FB1D05
S11320801B780949FB1D1A783B6801209840031C02
S1132090181C131CDB009B189B00CB181033186012
S11320A0BD4602B080BDC0460060004080B588B027
S11320B000AF7860344B181C0121FEF785FD7B6866
S11320C01B68324A93425BD1314BBB61BB69181C1C
S11320D00121FEF779FD7B681A797B685B79101C16
S11320E0191C0A220123FFF79DFA7B689A797B6801
S11320F0DB79101C191C0A220123FFF793FA002331
S1132100FB6112E07B681A797B685B79101C191CEF
S1132110FFF79EFF7B681A797B685B79101C191C9A
S1132120FFF768FFFB690133FB61FB69082BE9DDFD
S11321307B681B687A68127A1202111C03220A4314
S11321409A630823FB1801221A700823FB18012242
S11321505A707B681A690823FB189A607B68DA68EE
S11321600823FB185A607B681A7D0823FB181A732E
S11321707B681A680823FB18101C191CFFF7FCFB6A
S1132180BD4608B080BDC0464081040000A00040A8
S113219000B2040090B585B000AF78603960144B8C
S11321A0BB600F23FC187A683B68101C191CFFF7EE
S11321B027FE031C237007E00F23FC187B68181C00
S11321C0FFF70AFC031C23700F23FB181B785BB278
S11321D0012B04D1BB685A1EBA60002BECD10F232B
S11321E0FB181B785BB2181CBD4605B090BDC046F9
S11321F0E093040080B582B000AF021CFB1D1A708E
S1132200FB1D1B787F2B09D8064BFA1D1278111C75
S11322101F220A40012191400A1C1A60BD4602B0E7
S113222080BDC04600E100E080B582B000AF021C72
S1132230FB1D1A70FB1D1B787F2B0AD80649FB1D5A
S11322401B781A1C1F23134001229A40C0235B00F1
S1132250CA50BD4602B080BD00E100E080B500AFC9
S1132260024B5B68181CBD4680BDC0460000084098
S113227080B582B000AF7860024B7A689A61BD463F
S113228002B080BD0000084080B582B000AF786025
S1132290044B044AD2697968C9430A40DA61BD46ED
S11322A002B080BD0000084080B582B000AF786005
S11322B0044B044AD1697A680A43DA61BD4602B024
S11322C080BDC0460000084080B582B000AF054B19
S11322D0DB697B60034B1B697A681340181CBD469D
S11322E002B080BD0000084080B586B000AF7860C1
S11322F000237B6100233B61214B1B780122534067
S1132300DBB2002B01D01F4B35E0FEF7EDFF031CC1
S1132310FB6002E07B6901337B617B69012B0ADC92
S113232019497A69131C9B009B18DB00CB181833DE
S11323309B79002BEED17B69022B02D1134B3B61BD
S113234014E07B68002B0FD00F497A69131C9B00A3
S11323509B18DB00CB18183301229A717A697B68C9
S11323601A6000233B6101E0094B3B61FB68181CC8
S1132370FEF7C8FF3B69181CBD4606B080BDC046C9
S113238022020020061000F0C8010020011000F015
S1132390041000F080B500AF204B1B78002B01D057
S11323A0002338E01E4B181C0121FEF70DFC1D4BC9
S11323B0181C0221FEF7F0FD1B4B181C0121FEF72F
S11323C055FB194B181C0121FEF7FEFB174B181C7B
S11323D0FFF7E0FD0720FFF757FF0720FFF748FF4F
S11323E0FFF7FEFD0C20FFF71FFF0C20FFF702FF95
S11323F00F4B181C0021502202F013F80D4B002241
S11324001A700D4B00221A700C4B00221A60034BF9
S113241001221A700023181CBD4680BD2202002030
S11324200023020002001E0080061200E453000094
S1132430C801002020020020210200201C020020EC
S1132440B0B592B000AFF8617A613B610B23102202
S11324509446BC4463440A1C1A700023FB63D74BA4
S11324601B7801225340DBB2002B01D0D44BA0E1F6
S1132470FB69012B01D9D34B9BE1FEF735FF031C0C
S1132480BB63D149FA69131C9B009B18DB00CB1872
S113249018339B7901225340DBB2002B05D0BB6B70
S11324A0181CFEF72FFFC94B83E17B69002B0ED16B
S11324B03B69002B05D0F969BA6D3B69081C111CF6
S11324C09847BB6B181CFEF71DFF002371E1FFF753
S11324D0C5FE031C3B64BC49FA69131C9B009B1892
S11324E0DB00CB1818333A691A607B69BB600023A0
S11324F0FB60B868F968031C5B0C0A1CD5031D4318
S1132500031CDC03FA2252000023A4185D41231C9F
S11325102C1C181C211CFA229200002301F0FCFC44
S1132520031C0C1C191C221CA74CF869031C9B00DF
S11325301B18DB00E318083319605A600B231022C0
S11325409446BC4463441B78012B29D17B69FA224D
S113255092005A43111C9C48FA69131C9B009B1857
S1132560DB00C31808335C681B681A1C131C1B01AE
S11325709B1A5B00CB1A181C9349FA69131C9B0025
S11325809B18DB00CB18103318608F49FA69131CB1
S11325909B009B18DB00CB1810330F225A6018E005
S11325A08949FA69131C9B009B18DB00CB1808337C
S11325B05C681B6801214942CA17C9186241824CF0
S11325C0F869031C9B001B18DB00E318083319602F
S11325D05A607D49FA69131C9B009B18DB00CB18D9
S11325E008335C681B6801210022C9186241764CDB
S11325F0F869031C9B001B18DB00E31819605A6080
S11326007149FA69131C9B009B18DB00CB18183323
S113261001221A716C49FA69131C9B009B18DB0098
S1132620CB1818330B2210218C46BC446244127818
S1132630DA716549FA69131C9B009B18DB00CB18FF
S11326402033BA6D1A60624B1B78002B05D0BB6B2C
S1132650181CFEF757FE0023ABE05E4B1B680133EA
S113266004D05C4B1B685A1C5A4B1A605A4B1B789B
S113267001225340DBB2002B35D03B6C1B021A0AFB
S1132680564B1A600220FFF7F3FD4F49FA69131CF9
S11326909B009B18DB00CB185C681B683B637C6366
S11326A04F4BFB62FB6A3B6000237B603B6B7C6BA4
S11326B039687A68A24202D803D1994201D9191C17
S11326C0221C0B1CBB623A6CBB6AD3181B021B0A8C
S11326D00020191CFFF72EFC0220FFF7E5FD3E4BFE
S11326E001221A7057E03B4B1B68012B53D136492A
S11326F0FA69131C9B009B18DB00CB1818330022CB
S11327001A710220FFF7C0FD3B6C1A02334B1B68A1
S11327101B02D31A1B0A7B647B6C324A934201D19D
S113272000237B647B6C181C00F0BEF800F032FAC6
S1132730FB6B002B09D12449FA69131C9B009B18DD
S1132740DB00CB18183301221A71FB6B0133FB63D6
S11327503B6C181C00F050FAFFF780FD031C3B642F
S11327603B6C1A021D4B1B681B02D31A1B0A7B64A9
S11327700020FFF7C3FB031C1A02184B1B681B0243
S1132780D31A1B0A7B62144B1B78002B03D07A6C80
S11327907B6A9A42B5D20F4B1B68002B04D00D4BB9
S11327A01B685A1E0B4B1A60BB6B181CFEF7AAFD64
S11327B00023181CBD4612B0B0BDC0462202002042
S11327C0061000F0021000F0C8010020031000F011
S11327D0200200201C0200202102002018020020F8
S11327E09BFFFF00FFFFFF0080B586B000AFFEF740
S11327F07BFD031C3B61FFF767FD031CFB60FB686B
S113280003229343181CFFF733FDFB680222134095
S11328103DD0224B01221A70FFF720FD031C7B617F
S11328200220FFF731FD7B691A021D4B1B681B0256
S1132830D31A1B0ABB60BB68181C00F035F800F003
S1132840A9F97B69181C00F0D7F9FFF707FD031CF1
S11328507B617B691A02124B1B681B02D31A1B0A89
S1132860BB600020FFF74AFB031C1A020C4B1B68D9
S11328701B02D31A1B0A7B600A4B1B78002B03D064
S1132880BA687B689A42CBD2044B00221A703B6927
S1132890181CFEF737FDBD4606B080BD200200209F
S11328A01802002021020020F0B58DB000AFF861BD
S11328B00023FB6264E1B649FA6A131C9B009B186F
S11328C0DB00CB18183300225A71B149FA6A131C81
S11328D09B009B18DB00CB1818331B79002B00D10D
S11328E04BE1AB49FA6A131C9B009B18DB00CB1825
S11328F05C681B68FA69151C0022161CB44202D8D5
S11329001ED1AB421CD9A249FA6A131C9B009B1826
S1132910DB00CB185C681B68FA693A6100227A61B3
S113292039697A695B1A9441191C221C984CF86A1B
S1132930031C9B001B18DB00E31819605A601CE1A0
S11329409349FA6A131C9B009B18DB00CB181833BD
S1132950DB79002B0AD18E49FA6A131C9B009B1861
S1132960DB00CB18183300221A71F1E0FB69BB605D
S11329700023FB608649FA6A131C9B009B18DB004A
S1132980CB185C681B68B968FA68C91AA2410B1CA9
S1132990141C3B627C627E49FA6A131C9B009B18E0
S11329A0DB00CB1808335C681B683B607C607849AB
S11329B0FA6A131C9B009B18DB00CB1808335C6875
S11329C01B68396A7A6A081C111C1A1C231C01F042
S11329D0A3FA1C1C131C39687A68C91AA2416C4CEE
S11329E0F86A031C9B001B18DB00E31819605A608B
S11329F06749FA6A131C9B009B18DB00CB18103341
S1132A001B68002B52DD6249FA6A131C9B009B1859
S1132A10DB00CB18103359685D48FA6A131C9B001D
S1132A209B18DB00C31810331B68C9185848FA6A8E
S1132A30131C9B009B18DB00C318103359605449C6
S1132A40FA6A131C9B009B18DB00CB1810335B68DD
S1132A501D2B00D87CE04E49FA6A131C9B009B187E
S1132A60DB00CB185C681B6801210022C918624195
S1132A70474CF86A031C9B001B18DB00E318196021
S1132A805A604349FA6A131C9B009B18DB00CB185D
S1132A9010335B681E3B191C3D48FA6A131C9B00EB
S1132AA09B18DB00C3181033596051E03849FA6AA7
S1132AB0131C9B009B18DB00CB1810335968344857
S1132AC0FA6A131C9B009B18DB00C31810331B68A5
S1132AD0C91A2F48FA6A131C9B009B18DB00C31801
S1132AE0103359602A49FA6A131C9B009B18DB00B7
S1132AF0CB1810335B681D2B2AD92549FA6A131C9D
S1132B009B009B18DB00CB185C681B6801214942C1
S1132B10CA17C91862411E4CF86A031C9B001B1893
S1132B20DB00E31819605A601949FA6A131C9B0008
S1132B309B18DB00CB1810335B681E3B191C144830
S1132B40FA6A131C9B009B18DB00C31810335960EE
S1132B500F49FA6A131C9B009B18DB00CB1818332F
S1132B601B68002B09D00A49FA6A131C9B009B18A6
S1132B70DB00CB18183301225A71FB6A0133FB6264
S1132B80FB6A012B00DC96E6BD460DB0F0BDC046E5
S1132B90C801002090B583B000AF00237B6022E021
S1132BA014497A68131C9B009B18DB00CB1818335C
S1132BB05B79002B14D00F497A68131C9B009B1877
S1132BC0DB00CB1818331C6878680A497A68131C30
S1132BD09B009B18DB00CB1820331B68191CA047F3
S1132BE07B6801337B607B68012BD9DDBD4603B074
S1132BF090BDC046C8010020F0B58BB000AF78602E
S1132C0001235B42DC17BB61FC6100237B622AE089
S1132C1039497A6A131C9B009B18DB00CB181833C4
S1132C201B79002B1CD034497A6A131C9B009B1817
S1132C30DB00CB185C681B68FA69A24205D8FA6904
S1132C40A2420DD1BA699A420AD92B497A6A131C55
S1132C509B009B18DB00CB185C681B68BB61FC61A4
S1132C607B6A01337B627B6A012BD1DD234B00221B
S1132C701A70BB69013302D1FB69013338D0BB69D7
S1132C80FC693B617C611E4BFB60FB681D1C0023DF
S1132C901E1C39697A692B1C341C944202D803D156
S1132CA08B4201D90B1C141CBB61FC61154B1B78B6
S1132CB001225340DBB2002B05D07B681B021A0AA9
S1132CC0114B1A6002E0104B7A681A600220FFF779
S1132CD0CFFABA697B68D3181B021B0A0020191C9F
S1132CE0FFF728F9054B01221A700220FFF7DCFADE
S1132CF0BD460BB0F0BDC046C80100202102002033
S1132D009BFFFF0020020020180200200648804795
S1132D100649074A074B9B1A03DD043BC858D050A9
S1132D20FBDCFDF7E7F90000852E0000B454000039
S1132D300000002090010020FEE7C04680B582B06C
S1132D4000AF00F01FF8031C7B60084B5B680F2288
S1132D5013401A1C7B68D3407B60054B7A681A6069
S1132D607B68181CBD4602B080BDC04600800C4084
S1132D702400002080B500AF014B181CBD4680BD67
S1132D8000366E0180B582B000AF344BDB6A344A42
S1132D90134080225201934215D080225201934263
S1132DA004D880221201934211D017E080229201AC
S1132DB0934204D08022D20493420CD00EE0294BDB
S1132DC01B687B6039E080231B027B6035E0264B67
S1132DD01B687B6031E0254B7B602EE01F4BDA687B
S1132DE0E023DB00134080229200934218D080221B
S1132DF09200934206D8002B18D0802252009342AE
S1132E0011D016E0C0229200934206D08022D20054
S1132E1093420ED1164B7B600EE0164B7B600BE0A9
S1132E20154B7B6008E0154B7B6005E0144B7B6021
S1132E3002E000237B60C046C046084B1A68E023CA
S1132E405B0213409B0B01337868191C00F0B4FF3C
S1132E50031C181CBD4602B080BDC04600800C4057
S1132E60003C0004200000201C00002000366E01FD
S1132E70406F4001809FD500C0D8A70040B56400D2
S1132E80804F120080B500AF024B034A9A60BD46E2
S1132E9080BDC04600ED00E00000000080B500AF3A
S1132EA080231B02181CBD4680BDC04680B500AF00
S1132EB0FA239B00181CBD4680BDC04680B500AFF8
S1132EC0024B1B68181CBD4680BDC0462000002074
S1132ED080B582B000AF78607B68181C00F0A2FD5A
S1132EE0031C181CBD4602B080BDC04680B584B02A
S1132EF000AF021CFB1D1A70FB1D5220191C01227D
S1132F00FDF790F9031CFB60FB68012B08D1082333
S1132F10FB185220191C0222FDF7C8F9031CFB60A0
S1132F200823FB181B789BB21B029AB20823FB18D8
S1132F305B789BB2D3189BB2181CBD4604B080BD0D
S1132F4080B584B000AF021CFB1D1A70FB1D1A78FB
S1132F500B23FB181A70FB1D5220191C0122FDF7CC
S1132F6061F9031CFB60FB68012B08D10B23FB18E0
S1132F705220191C0122FDF799F9031CFB600B2355
S1132F80FB181B78181CBD4604B080BD80B584B006
S1132F9000AF3960111CFB1D021C1A70BB1D0A1CFA
S1132FA01A70FB1D5220191C0122FDF73BF9031C6A
S1132FB0FB60FB68012B09D13A68BB1D1B785220CA
S1132FC0111C1A1CFDF772F9031CFB60BD4604B00A
S1132FD080BDC04680B588B000AF3960111CFB1DB0
S1132FE0021C1A70BB1D0A1C1A700C23FB18FA1D54
S1132FF012781A70BB1D1A780C23FB18591C3B68F5
S1133000081C191C01F004FABB1D1B780133DBB248
S11330100C22BA185220111C1A1CFDF703F9031CC8
S1133020FB61BD4608B080BD80B584B000AF021C12
S1133030FB1D1A703B1D0A1C1A800823FB18FA1D7D
S113304012781A703B1D1B881B0A9BB2DAB2082344
S1133050FB185A703B1D1B88DAB20823FB189A70C0
S11330600823FB185220191C0322FDF7DBF8031C6C
S1133070FB60BD4604B080BD80B584B000AF021CC7
S1133080FB1D1A70BB1D0A1C1A700823FB18FA1DBD
S113309012781A700823FB18BA1D12785A70082384
S11330A0FB185220191C0222FDF7BCF8031CFB601C
S11330B0BD4604B080BDC04680B584B000AF786022
S11330C07B685A1C7A600F22BA181B78137011E0BF
S11330D07B685220191C0222FDF7A4F8031CBB6074
S11330E07B6802337B600F23FB181A780F23FB18CD
S11330F0013A1A700F23FB181B78002BE8D1BD4648
S113310004B080BD90B585B000AF78603960364BAF
S1133110181CFFF7D1FF8320FFF712FF031C1A1CB2
S113312004231343DBB28320191CFFF7A5FF2F4BA5
S1133130181CFFF7C1FF0023FB600BE08320FFF79F
S1133140FFFE031E00D008E0FB680133FB60322061
S1133150FDF718F8FB68312BF0DDFB68322B09D141
S1133160234B1B68DA68234B101C191C01F01AF955
S1133170002334E083200121FFF77EFF0B23FC189A
S11331809220FFF7DDFE031C23700B23FB181B7832
S11331907F221340DAB27B681A700B23FB181B786A
S11331A07F229343DAB23B681A7081200021FFF733
S11331B063FFFF200621FFF75FFF8320FFF7C0FEB8
S11331C0031C1A1C04239A43131CDBB28320191C0E
S11331D0FFF752FF084B181CFFF76EFF0123181C62
S11331E0BD4605B090BDC0463C000020480000200C
S11331F070010020E85300005400002080B582B024
S113320000AF021CBB1D1A80BB1D1B88FF2213408C
S1133210BA1D1288120A92B293409BB201339BB238
S1133220181CBD4602B080BD80B584B000AF021C3E
S1133230BB1D1A807B1D0A1C1A707B1D1B780E4A4D
S11332405343F533FF33181CFA23990000F0B4FDFF
S1133250031CFB60BB1D1B88FA685A43FB685B08B0
S1133260D318181CFA23990000F0A6FD031C181C9F
S1133270BD4604B080BDC046002F3A0080B584B07E
S113328000AF78600A1CFB1C1A70FB1C1B780D4AEB
S11332905343F533FF33181CFA23990000F08CFDD7
S11332A0031CFB607B68FA2292005A43FB685B08AC
S11332B0D318181CF96800F07FFD031C181CBD46C8
S11332C004B080BD002F3A0080B584B000AF021C6A
S11332D0BB1D1A800023FB600A23FB1800221A80FE
S11332E0BB1D1B88002B1FD0BB1D1B88013BFB6033
S11332F009E0FB685B08FB600A23FB181A880A23B1
S1133300FB1801321A80FB68FF229343F1D10A2390
S1133310FB181B881B029AB2FB689BB2FF210B406F
S11333209BB213439BB200E00023181CBD4604B0BB
S113333080BDC04680B582B000AF021C3960FB1D61
S11333401A705020FFF7FCFD031C9BB201339BB2A3
S1133350DB189AB23B681A804620FFF7F1FD031C84
S11333609BB201339AB23B689A803B689A883B6867
S11333701B88DBB2101C191CFFF756FF021C3B68AC
S1133380DA605120FFF7B2FD031C181CFFF736FF6B
S1133390031C1A1C3B68DA803B68DA883B681B888C
S11333A0DBB2101C191CFFF73FFF021C3B681A61BB
S11333B07020FFF7C5FD031C9BB201339BB2DB18E1
S11333C09AB23B685A807120FFF790FD031C181CC9
S11333D0FFF714FF031C1A1C3B681A81FB1D1B78A2
S11333E04022134007D03B681A893B68DB88D31A14
S11333F09AB23B681A813B681A893B685B88DBB2E6
S1133400101C191CFFF710FF021C3B685A61BD46D3
S113341002B080BD90B58DB000AF021CFB1D1A70C8
S1133420BB1D0A1C1A70BB1D1B785B08DAB22D2366
S1133430FB18013A1A702C23FC180120FFF780FDB9
S1133440031C23702C23FB181A780C23FB18101C64
S1133450191CFFF76FFFFB1D1B78002B66D1BB1DEA
S11334601B780E2B0DD002DC0C2B05D018E0102B92
S11334700CD0122B0FD013E057201821FFF7FCFDBE
S113348010E057203021FFF7F7FD0BE057204021D3
S1133490FFF7F2FD06E057205021FFF7EDFD01E0B4
S11334A0002318E156200821FFF7E6FD2D23FB1821
S11334B01B785020191CFFF7DFFD0C23FB181A6939
S11334C0BB1D1B78101C191CFFF7D8FE021C2A23F5
S11334D0FB181A802A23FB181B88181CFFF7F4FE1C
S11334E0031C5120191CFFF79FFD0C23FB18DA68FD
S11334F0BB1D1B78101C191CFFF7C0FE021C2823DF
S1133500FB181A802823FB181A8880235B009A4230
S113351006D82823FB181B88DBB2013BDBB200E092
S1133520FF234620191CFFF7A7FDB9E0FB1D1B78FC
S1133530012B00D0B2E0BB1D1B780A2B25D002DC86
S1133540082B05D078E00C2B3CD00E2B57D073E021
S113355048201021FFF790FD47200821FFF78CFD3C
S113356032200221FFF788FD30200C21FFF784FD73
S1133570FF200121FFF780FD30203021FFF77CFD83
S1133580FF200021FFF778FD58E048202821FFF7AD
S113359073FD47200821FFF76FFD32200321FFF759
S11335A06BFD30200921FFF767FDFF200121FFF7A4
S11335B063FD30202021FFF75FFDFF200021FFF78E
S11335C05BFD3BE048203821FFF756FD47200821EA
S11335D0FFF752FD32200321FFF74EFD3020082172
S11335E0FFF74AFDFF200121FFF746FD302020218F
S11335F0FFF742FDFF200021FFF73EFD1EE04820BB
S11336004821FFF739FD47200821FFF735FD322017
S11336100321FFF731FD30200721FFF72DFDFF20A7
S11336200121FFF729FD30202021FFF725FDFF2090
S11336300021FFF721FD01E000234CE02D23FB18BE
S11336401B787020191CFFF717FD0C23FB185A690F
S1133650BB1D1B78101C191CFFF710FE021C2E2327
S1133660FB181A802C23FB181B784022134009D026
S11336700C23FB18D9882E23FB182E22BA18128883
S11336808A181A802E23FB181B88181CFFF71CFEAF
S1133690031C7120191CFFF7C7FC01E000231AE08A
S11336A00F4B1B68181C00F01DF82723FC18012081
S11336B0FFF746FC031C237001200221FFF7DCFC0A
S11336C0002000F07DF92723FB181B780120191C2A
S11336D0FFF7D2FC0123181CBD460DB090BDC046B7
S11336E02402002090B591B000AF78603823FB1815
S11336F0A522D2001A803623FB18F02292001A80E9
S11337003423FB18A52292001A803223FB185B4A4B
S11337101A803023FB185A4A1A802E23FB18A5223C
S113372092001A802C23FB18564A1A80564BBB620F
S11337307A68BB6A9A4201D200239BE03823FB18C3
S11337401A883623FB181B88D318FB632723FC181D
S11337500120FFF7F5FB031C23702723FB181A78BD
S11337600823FB18101C191CFFF7E4FD2723FB1882
S11337701B781022134009D00823FB18DA6832237F
S1133780FB181B88D318FA6BD318FB632723FB1889
S11337901B78082213400BD00823FB18DA68302367
S11337A0FB181B88D3185B00FA6BD318FB630FE07C
S11337B02723FB181B780422134009D00823FB1885
S11337C0DA683423FB181B88D318FA6BD318FB630D
S11337D02723FB181B784022134009D00823FB1829
S11337E01A692E23FB181B88D318FA6BD318FB63B2
S11337F02723FB181B785BB2002B3ADA2C23FB1827
S11338001B88FA6BD318FB63FA6B7B689A4201D965
S113381000232FE07A68FB6BD31A3B620823FB1862
S11338205B88DBB23A6A101C191CFFF727FD021CE7
S11338303A23FB181A802723FB181B7840221340D5
S113384009D00823FB18D9883A23FB183A22BA185E
S113385012888A181A803A23FB181B88181CFFF751
S113386033FD031C7120191CFFF7DEFB074B7A683C
S11338701A600123181CBD4611B090BD4E02000011
S1133880B202000026020000204E000024020020A4
S113389090B58DB000AF2A23FB18444A1A80282320
S11338A0FB18F02292001A802623FB18A52292000E
S11338B01A802423FB183E4A1A802223FB183D4A0F
S11338C01A802023FB18A52292001A801E23FB18BD
S11338D0394A1A802A23FB181A882823FB181B88C4
S11338E0D318FB621D23FC180120FFF729FB031CDE
S11338F023701D23FB181A783B1D101C191CFFF79D
S113390019FD1D23FB181B781022134008D03B1D02
S1133910DA682423FB181B88D318FA6AD318FB62CD
S11339201D23FB181B78082213400AD03B1DDA68BC
S11339302223FB181B88D3185B00FA6AD318FB6296
S11339400EE01D23FB181B780422134008D03B1DF6
S1133950DA682623FB181B88D318FA6AD318FB628B
S11339601D23FB181B784022134008D03B1D1A6905
S11339702023FB181B88D318FA6AD318FB621D2373
S1133980FB181B785BB2002B08DA3B1D5A691E2317
S1133990FB181B88D318FA6AD318FB62074BFA6A20
S11339A01A60FB6A181CBD460DB090BD7607000076
S11339B04E020000B2020000260200002402002091
S11339C080B584B000AF021CFB1D1A70FB1D1B7870
S11339D001221343DBB20020191CFFF74DFB002327
S11339E0FB600AE0FB680133FB603220FCF7CAFB92
S11339F0FB68642B01DD002310E01320FFF7A0FA1D
S1133A00031C1A1C07231340ECD00B200121FFF7E1
S1133A1033FB00200021FFF72FFB0123181CBD46B8
S1133A2004B080BD80B588B000AF78601623FB1861
S1133A3000221A701523FB1800221A708920FFF740
S1133A407FFA031C1A1C01231343DBB28920191CBF
S1133A50FFF712FB724B181CFFF72EFB9120FFF7A8
S1133A606FFA031C1A1C6F4B1A706F4B181CFFF76C
S1133A7023FB6020FFF764FA031C1A1C1223134370
S1133A80DBB26020191CFFF7F7FA44202021FFF76E
S1133A90CBFA0120FF21FFF7EFFA1623FA181523BA
S1133AA0FB18101C191CFFF72DFB0C23FB18B0206E
S1133AB0191C0622FFF76AFA5C4B181CFFF7FCFA84
S1133AC01523FB181B78002B01D00C2200E00022E8
S1133AD01723FB181A701F23FB1800221A700023E7
S1133AE0BB613EE01723FB181A78BB699A4207DCD6
S1133AF01623FB181B781F22BA1812789A4218D181
S1133B00BB69DB10BA69D2100C2179188A5CD0B277
S1133B10BA6907210A40012191400A1CD2B2D2435A
S1133B20D1B2021C0A40D2B2D1B20C22BA18D1547A
S1133B3014E0BB69DB100C22BA18D35C191CBB69F6
S1133B400722134019410B1C0122134006D01F23E6
S1133B50FB181A781F23FB1801321A70BB69013352
S1133B60BB61BB692F2BBDDD0C23FB18B020191CD6
S1133B700622FFF72FFA2E4B181CFFF79DFA7B68DD
S1133B80002B0BD044200D21FFF74EFA0020122108
S1133B90FFF740FC01200E21FFF73CFC0A20042122
S1133BA0FFF76AFA8420FFF7CBF9031C1A1C1023D1
S1133BB09A43131CDBB28420191CFFF75DFA0B2017
S1133BC00121FFF759FAFFF763FE021C194B1A6033
S1133BD00120E821FFF750FA164B1B68181CFFF769
S1133BE081FD01200121FFF747FA4020FFF7E8FE9D
S1133BF0031E01D100230FE001200221FFF73CFA4C
S1133C000020FFF7DDFE031E01D1002304E00120A4
S1133C10E821FFF731FA0123181CBD4608B080BD26
S1133C20280000202302002034000020600000202F
S1133C306C0000202402002090B583B000AF002364
S1133C407B600AE07B6801337B603220FCF79AFAE0
S1133C507B68322B01DD0D4B13E01320FFF770F965
S1133C60031C1A1C07231340ECD0BC1C1E20FFF7B6
S1133C703DF9031C23800B200121FFF7FDF9BB1C38
S1133C801B88181CBD4603B090BDC046FFFF000052
S1133C9080B582B000AF80200121FFF7EDF9FF204D
S1133CA00121FFF7E9F900200021FFF7E5F91A4B9C
S1133CB01B789120191CFFF7DFF900200121FFF781
S1133CC0DBF9FF200021FFF7D7F980200021FFF75F
S1133CD0D3F900200121FFF7CFF900237B600BE02B
S1133CE07B6801337B603220FCF74CFA7B68322B13
S1133CF002DD01235B420AE00020FFF721F9031CE7
S1133D001A1C01231340EBD1FFF796FF031C181C68
S1133D10BD4602B080BDC0462302002080B584B0F9
S1133D2000AF786039607B68002B1ED00823FB1835
S1133D30C0221A700823FB185220191C0122FCF718
S1133D4071FA031CFB600823FB185220191C012282
S1133D50FCF7ACFA031CFB60FB68012B05D10823BC
S1133D60FB181B781A1C7B681A603B68002B1ED05A
S1133D700823FB18C2221A700823FB185220191CAE
S1133D800122FCF74FFA031CFB600823FB185220A6
S1133D90191C0122FCF78AFA031CFB60FB68012B47
S1133DA005D10823FB181B781A1C3B681A600123F1
S1133DB0181CBD4604B080BD002243088B4274D356
S1133DC003098B425FD3030A8B4244D3030B8B4218
S1133DD028D3030C8B420DD3FF22090212BA030C21
S1133DE08B4202D31212090265D0030B8B4219D302
S1133DF000E0090AC30B8B4201D3CB03C01A524122
S1133E00830B8B4201D38B03C01A5241430B8B4269
S1133E1001D34B03C01A5241030B8B4201D30B0352
S1133E20C01A5241C30A8B4201D3CB02C01A524179
S1133E30830A8B4201D38B02C01A5241430A8B423C
S1133E4001D34B02C01A5241030A8B4201D30B0225
S1133E50C01A5241CDD2C3098B4201D3CB01C01A3F
S1133E60524183098B4201D38B01C01A5241430949
S1133E708B4201D34B01C01A524103098B4201D337
S1133E800B01C01A5241C3088B4201D3CB00C01AA4
S1133E90524183088B4201D38B00C01A524143081C
S1133EA08B4201D34B00C01A5241411A00D2014641
S1133EB0524110467047FFE701B5002000F00CF8AE
S1133EC002BDC0460029F7D003B5FFF775FF0EBC4D
S1133ED04243891A1847C0467047C0461C21012333
S1133EE01B04984201D3000C10391B0A984201D3D9
S1133EF0000A08391B09984201D30009043902A2B7
S1133F00105C40187047C04604030202010101011D
S1133F100000000000000000002B11D1002A0FD186
S1133F20002900D1002802D00021C943081C07B48D
S1133F30024802A14018029003BDC0469DFFFFFF46
S1133F4003B4684601B5029800F04CF8019B9E4604
S1133F5002B00CBC7047C046F0B54F464646050457
S1133F602D0C2C1CC0B41704160C3F0C9946030CE2
S1133F707C4375435F4373437D19260CAD199C46FE
S1133F80AF4203D980235B029846C4444B46514355
S1133F90434324042E0C240C2D0466442C19591874
S1133FA08919201C0CBC90469946F0BDF0B583B02D
S1133FB0161C1F1C0090019100F02EF8041C0D1C0F
S1133FC0221C2B1C301C391CFFF7C6FF009A019BD6
S1133FD0121A8B410899201C0A604B60291C03B0FB
S1133FE0F0BDC046F0B5141C83B01D1C00900191B7
S1133FF000F00AF9221C2B1C061C0F1CFFF7ACFF57
S1134000009A019B121A8B410899301C0A604B607C
S1134010391C03B0F0BDC046F0B544465F46564671
S11340204D46F0B41C1C85B0002900DAA9E00F1C31
S11340300021061C8846101C191C002C00DA97E08D
S1134040341C3D1C82468946B94273D870D0494617
S1134050504600F085F98346391C301C00F080F985
S11340605B46181A031C8346203B9C4600D59CE003
S11340700023002251460092019363469940019126
S113408051468140019B0091BB4200D983E000D19D
S11340907EE0009A019B341C3D1CA41A9D4163469A
S11340A0002B00DA9AE000260027029603970136D7
S11340B09E400396012686400296002800D171E0B6
S11340C00099019AD30799464B464E081E43570858
S11340D0002301220CE0AF4201D1A6420AD8A41B5E
S11340E0BD4124196D410138A4185D41002806D052
S11340F0AF42F0D9013824196D410028F8D12022AB
S1134100029E039F5B46524236196F4199185AD456
S1134110281CC8402C1C5B46DC40002968DB041CBE
S11341208C40231C59468840021CB61A9F4103E068
S1134130B0428CD90026002741464B1E99410023EA
S113414000910193009A019B002554429D41331C28
S11341506340181C3B1C6B40191C009B019CC0183D
S1134160614105B03CBC90469946A246AB46F0BDC1
S11341704346DB430C1C9846131C00215842A141C2
S11341805EE7002746428F4101214942884652E7B3
S1134190B14200D87DE70026002702960397002845
S11341A000D08DE7029E039FC6E720215346091ADB
S11341B0CB400022191C0023009201934B468340FC
S11341C00B4301935CE75A4620239B1A2A1C9A400E
S11341D0201C131C5A46D04018439BE72026002776
S11341E0331A0026029603970127DF40039761E7FD
S11341F05B4620215D46C91A031CAC40CB40191C08
S1134200231C0B438EE7C046F0B545464E46574641
S1134210E0B4041C82B00D1C914698468B4262D8CF
S11342205FD04146484600F09BF8291C061C201C20
S113423000F096F82023311A5B428A46C81865D4E8
S11342404B4683401F1C4B468B401E1CAF4258D824
S113425055D0A41BBD41002800DA77E000220023DA
S11342600092019301328240019201238B4000931A
S113427000293CD0FB079846404672087B0802435D
S1134280012600270CE0AB4201D1A2420AD8A41AAD
S11342909D4124196D410139A4197D41002906D09D
S11342A0AB42F0D9013924196D410029F8D12022FB
S11342B00098019953465242001969419E183AD414
S11342C02F1CF7405346DD40002E29DB3C1CB44034
S11342D0231C5446A7403A1C801A9941009001912E
S11342E005E082429DD900230024009301940098A4
S11342F0019902B01CBC90469946A246F0BDA34267
S1134300A7D90022002300920193B1E720224B4653
S1134310521AD3401A1C43468B401F1C174392E782
S1134320534620245646E41A3B1CB540E3401C1C6B
S11343302B1C2343CDE7524620239B1A2A1C9A4068
S1134340271C131C5246D7401F43BBE720230022DF
S1134350581A0023009201930132C240019284E76B
S113436010B5002903D1FFF7B9FD203002E0081C85
S1134370FFF7B4FD10BDC046084B10B5041C002B5C
S113438002D0002100E000BF054B1868836A002BAF
S113439000D09847201C00F071FFC04600000000C8
S11343A0105400000EB403B5011C03AB044804CB45
S11343B00068019300F004F902B008BC03B0184788
S11343C0700100200E4B70B500251E1C0D4CE41A24
S11343D0A410A54204D0AB00F35898470135F8E780
S11343E000F04EFF084B00251E1C084CE41AA410D4
S11343F0A54204D0AB00F35898470135F8E770BDE7
S11344008401002084010020840100208801002010
S1134410002310B5934203D0CC5CC4540133F9E7B4
S113442010BD031C8218934202D019700133FAE7BD
S11344307047000030B500293ED004390B68002BCA
S113444000DAC9181D4A1368141C002B02D14B60F2
S1134450116031E099420DD208680A189A4203D1DA
S11344601368C3180B6053684B60216024E08A42D0
S113447003D8131C5A68002AF9D11D685C198C42B0
S11344800BD10968691858181960904214D1106842
S11344905268091819605A600EE08C4202D90C2344
S11344A0036009E008680C18944203D11468526848
S11344B0001908604A60596030BDC0462C020020D3
S11344C0032370B5CC1C9C430834051C0C2C01D26E
S11344D00C2405E0002C03DA0C2300202B6042E0BE
S11344E08C42F9D3204A1368101C191C002913D0DC
S11344F00A68121B0DD40B2A02D90A608B181FE01C
S11345008B4202D15A6802601BE04A685A600B1C55
S113451017E00B1C4968E9E7144E3368002B03D1FC
S1134520281C00F0E3FA3060281C211C00F0DEFA9D
S1134530031C421CD0D00322C61C964386420AD1D7
S11345401C60181C07210B301A1D8843821A0AD0DC
S11345505142995007E0311A281C00F0C7FA431C55
S1134560BAD0331CECE770BD2C02002028020020D6
S1134570936810B5013B9360002B05DA9469A3425C
S113458008DBCBB20A2B05D01368581C10601970D5
S1134590C8B201E000F0BCFA10BDF8B5061C0F1C4F
S11345A0141CD518AC4208D02178301C3A1CFFF7F3
S11345B0DFFF0134431CF5D100E00020F8BD00000A
S11345C0F0B59FB0061C0F1C02920593002804D07E
S11345D08369002B01D100F05FFC794B9F4201D12C
S11345E0776808E0774B9F4201D1B76803E0764BC8
S11345F09F4200D1F768BB891B070AD53B69002B92
S113460007D0002306AD6B6120336B761033AB7695
S11346103DE0301C391C00F0D3FA0028F1D0012011
S11346204042CAE0059A111D12680591002A7EDBFA
S11346300992013423782E2B00D189E02178634834
S1134640032200F013FD002808D0604B0134C01A87
S113465040238340181C2B68184328602178631C6E
S11346605B4806220293297600F000FD002800D161
S113467091E0584B002B00D084E00722059B0733C0
S11346809343083305936B69039A9B186B61029CEF
S11346902378002B04D1029BE31A049311D003E086
S11346A0252BF8D00134F3E7049B301C391C029A03
S11346B0FFF773FF431C7BD06A69049B94466344F1
S11346C06B612378002B73D00122002352426A606D
S11346D002A95432521801342B60EB60AB601370A2
S11346E0AB6521783C48052200F0C0FC002809D0C5
S11346F0394B0134C01A01238340181C2B6818431A
S11347002860EEE72B68DA0604D55322202102A89C
S1134710121811701A0704D553222B2102A812185B
S1134720117022782A2A00D17CE7099B05E05242C5
S1134730EA60022213432B607BE72278303A092A8D
S113474004D80A214B4301349B18F6E7099371E717
S113475063782A2B09D1059B02341A1D1B68059224
S1134760002B0DDA01235B420AE000230134227896
S1134770303A092A04D80A214B4301349B18F6E73E
S113478007935BE705AB0093301C291C3A1C134BC1
S113479000E000BF07E005AB0093301C291C3A1C65
S11347A00E4B00F08BF80390039B013300D06AE7B3
S11347B0BB895B0600D532E70B981FB0F0BDC0463D
S11347C04854000068540000885400001A54000043
S11347D01E54000000000000145400009B4500001B
S11347E0F7B5171C01930A698B6800900C1C93425F
S11347F000DA131C221C3B6043321278002A01D0D9
S113480001333B6023689B0602D53B6802333B605F
S1134810062523681D401ED0231C43331B785A1ED3
S11348209341226892061CD53020E1184031C870AB
S1134830211C5A1C45310978A21840320233D17028
S11348400FE0221C0123009801991932089EB047F9
S1134850431C0ED00135E3683A689B1A9D42F0DB95
S1134860DAE7221C009801994332089DA847431CAB
S113487002D10120404220E006232068E1683A6822
S113488003400025042B03D18D1AEB43DB171D4095
S1134890A3682269934201DD9B1AED180027AF42F9
S11348A00ADA221C0123009801991A32089EB047A3
S11348B0431CDED00137F2E70020FEBDF0B58BB01B
S11348C006920A1C43320793059004920A7E0C1C3C
S11348D0109B6E2A00D1A8E011D8632A22D009D8EF
S11348E0002A00D1B2E0582A00D0C2E045310A7053
S11348F07C4A4FE0642A1DD0692A1BD0B9E0732A90
S113490000D1A7E009D86F2A29D0702A00D0B0E0DE
S1134910202209680A43226037E0752A1FD0782ACA
S113492033D0A6E00E1C1A684236111D19601368B4
S11349303370A1E021681A68080606D4490604D534
S1134940111D19600023D55E02E0111D1960156860
S1134950002D3BDA2D23049A6D42137036E0216852
S11349601A68080606D4490604D51568111D19608D
S1134970ADB202E0111D196015685A4B227E0393F3
S11349800A276F2A1DD108271BE0221C78214532F3
S11349901170554A19680392081D226818600D6841
S11349A0100602D4500600D5ADB2D30702D5202399
S11349B01A4322601027002D03D1202322689A4332
S11349C02260231C002243331A7002E00A27454B5D
S11349D003936368A360002B03DB042221689143E3
S11349E02160002D02D1049E002B0ED0049E281CB1
S11349F0391CFFF767FA039B013E5B5C281C33708C
S1134A00391CFFF7D9F9051EF1D1082F09D1236804
S1134A10DB0706D563682269934202DC3023013E3A
S1134A203370049B9B1B23612BE009681A680806FA
S1134A3007D4490605D5111D19601368A28A1A8086
S1134A4004E0111D1960136862691A600023049E52
S1134A50236116E01A68111D196016680021301CC4
S1134A60626800F003FB002801D0801B606063686B
S1134A7003E0261C42363270012323610023049A8A
S1134A801370079B05980093211C069B09AAFFF746
S1134A90A7FE431C02D10120404221E0236905986E
S1134AA00699321C079DA847431CF4D023689B0732
S1134AB005D4099BE068984212DA181C10E000251E
S1134AC0E368099A9B1A9D42F3DA221C0123059894
S1134AD006991932079EB047431CDCD00135EFE735
S1134AE00BB0F0BD255400003654000038B5002347
S1134AF0064C051C081C236000F0AAFB431C03D1D0
S1134B002368002B00D02B6038BDC04678020020FB
S1134B1070B5051C0E1C141C002804D08369002BDE
S1134B2001D100F0B9F9234B9C4201D16C6808E033
S1134B30214B9C4201D1AC6803E0204B9C4200D144
S1134B40EC68A369A360A3891B070AD52369002B1A
S1134B5007D023682269F6B2981A636998420FDB7A
S1134B6008E0281C211C00F02BF80028F1D00120BB
S1134B7040421DE0281C211C00F020F90028F6D139
S1134B80A3680130013BA36023685A1C22601E7095
S1134B906369984205D0A389301CDB0708D50A2E27
S1134BA006D1281C211C00F009F90028DFD1301C93
S1134BB070BDC0464854000068540000885400008A
S1134BC0354B70B51D68061C0C1C002D05D0AB6957
S1134BD0002B02D1281C00F05FF9304B9C4201D11C
S1134BE06C6808E02E4B9C4201D1AC6803E02D4B6D
S1134BF09C4200D1EC68A3899AB2110723D4D10650
S1134C0007D409220120326037321343A381404282
S1134C1040E0530713D5616B002908D0231C4433AB
S1134C20994202D0301CFFF705FC00236363242261
S1134C30A3899343A381002363602369236008222B
S1134C40A3891343A3812369002B0BD1A023A28939
S1134C509B00134080229200934203D0301C211CFD
S1134C6000F0ACF90123A289134005D00023A3600E
S1134C7063695B42A36103E0910700D46369A360A5
S1134C8000202369834205D1130603D540231A4328
S1134C90A281013870BDC046700100204854000054
S1134CA06854000088540000F7B58A89051C0C1C60
S1134CB013075ED44B68002B02DC0B6C002B1ADD4F
S1134CC0E76A002F17D000232E682B6080235B0136
S1134CD01A4001D0626D15E0281C216A0123B847EF
S1134CE0021C431C0ED12B68002B0BD01D2B01D0B2
S1134CF0162B02D12E6000205EE04021A3890B43D5
S1134D00A38159E0A3895B0706D56368D21A636B54
S1134D10002B01D0236CD21A0023281C216AE76AD5
S1134D20B847A389421C06D12A68002A03D01D2A49
S1134D3001D0162A19D10022626022692260DB04A4
S1134D4005D5431C02D12B68002B00D16065616B33
S1134D502E600029CFD0231C4433994202D0281C52
S1134D60FFF768FB0020606326E040221343A38121
S1134D7022E00F69002FBED00B680F60DB1B01938C
S1134D800023920700D14B69A360019B002BB2DD85
S1134D90281C216A3A1C019BA66AB047002806DC3D
S1134DA040220120A38940421343A38104E0019BD4
S1134DB03F181B1A0193E8E7FEBD000038B50B69E4
S1134DC0051C0C1C002B01D100201CE0002804D081
S1134DD08369002B01D100F05FF80B4B9C4201D199
S1134DE06C6808E0094B9C4201D1AC6803E0084BB5
S1134DF09C4200D1EC680C22A35E002BE4D0281C5A
S1134E00211CFFF751FF38BD4854000068540000CE
S1134E108854000008B5024900F0AEF808BDC04649
S1134E20BD4D0000002310B5041C03604360836083
S1134E3081814366C281036143618361191C082235
S1134E405C30FFF7EEFA054B24626362044BA36205
S1134E50044BE362044B236310BDC046855000003D
S1134E60AD500000E55000001151000070B56825F8
S1134E704B1E5D430E1C291C7431FFF721FB041EDD
S1134E8008D000212A1C016046600C30A060683202
S1134E90FFF7C7FA201C70BD836913B5002B28D116
S1134EA08364C3640365134B134A1B6882620193D2
S1134EB0984201D101238361041C00F01FF8606053
S1134EC0201C00F01BF8A060201C00F017F804213F
S1134ED0E06000226068FFF7A5FFA06809210122B5
S1134EE0FFF7A0FFE06812210222FFF79BFF0123D6
S1134EF0A36113BD10540000154E0000F8B51D4BFE
S1134F00061C1D68AB69002B02D1281CFFF7C4FFE7
S1134F104835AC686B68013B05D40C22A75E002FB2
S1134F2010D06834F7E72B68002B06D1301C04211D
S1134F30FFF79CFF2860002801D02D68E9E70C23C7
S1134F40336016E00123201C5B42E3810233A3811A
S1134F5067662760A760676027616761A7615C3047
S1134F60391C0822FFF75DFA201C6763A763A76456
S1134F70E764F8BD10540000F7B5041C071C0026B4
S1134F8001914834002C16D06368A5680093009BF7
S1134F90013B00930DD4AB89012B08D90E22AB5EE3
S1134FA0013304D0381C291C019B984706436835FB
S1134FB0EDE72468E6E7301CFEBD0000F0B58B8900
S1134FC091B09B0706D50B1C47330B600B61012383
S1134FD04B6145E00C1C0E23C95E061C002904DA53
S1134FE08023A5891D4010D10CE001AA00F0BCF873
S1134FF00028F5DBF023029D1B021D40194BED1820
S11350006B425D418027FF0001E000254027301CF2
S1135010391CFFF755FA00280CD1A3899A051FD42F
S113502002221343A381231C4733236023610123FA
S1135030636115E080220C4BB362A38920601343A3
S1135040A38120616761002D0AD00E23E15E301C2C
S113505000F09CF8002803D00122A3891343A38104
S113506011B0F0BD00E0FFFF154E0000C9B2821878
S1135070904204D003788B4202D00130F8E700203C
S11350807047000038B50C1C0E25495F00F0A4F8E9
S1135090002803DB636D1B18636503E0A289024BE0
S11350A01340A38138BDC046FFEFFFFFF8B51E1CB7
S11350B08B89051C0C1C171CDB0505D50E23C95E4A
S11350C00022022300F074F8A289054B281C134027
S11350D0A3813A1C0E23E15E331C00F01FF8F8BDD7
S11350E0FFEFFFFF38B50C1C0E25495F00F060F898
S11350F0A389421C03D1054A1340A38104E0802202
S113510052011343A381606538BDC046FFEFFFFF22
S113511008B50E23C95E00F015F808BD38B5051CA6
S11351200020074C2060081C111C1A1C00F09EF87B
S1135130431C03D12368002B00D02B6038BDC0462C
S11351407802002038B50023064C051C081C236097
S113515000F056F8431C03D12368002B00D02B60C9
S113516038BDC0467802002038B50023064C051C23
S1135170081C111C236000F04BF8431C03D1236866
S1135180002B00D02B6038BD7802002038B50023F6
S1135190064C051C081C236000F042F8431C03D194
S11351A02368002B00D02B6038BDC0467802002055
S11351B038B5051C0020074C2060081C111C1A1C63
S11351C000F036F8431C03D12368002B00D02B6079
S11351D038BDC0467802002038B5051C0020074CB5
S11351E02060081C111C1A1C00F02AF8431C03D16F
S11351F02368002B00D02B6038BDC0467802002005
S113520058220120014B40421A6070477802002066
S113521058220120014B40421A6070477802002056
S11352205822024B00201A607047C04678020020C2
S113523058220120014B40421A6070477802002036
S113524058220120014B40421A6070477802002026
S1135250044A1368002B03D018181060181C7047F8
S1135260014BF9E73002002080020020582201207F
S1135270014B40421A60704778020020FEE7C046A6
S1135280F8B5C046F8BC08BC9E467047F8B5C046A1
S1135290F8BC08BC9E46704701B40248844601BC71
S11352A0604700BF75010020AC0B0000940A0000A9
S11352B0AC0B0000AC0B0000CE0A0000AC0B0000ED
S11352C0AC0B0000000B0000480B00007A0B000040
S11352D0540C0000F60B0000FC0B0000F00B000067
S11352E0540C0000540C0000020C00000C0C0000D4
S11352F0160C0000540C0000220C0000720F000079
S1135300E80D0000500E00009C0E0000E80E0000A6
S1135310720F00001A0F0000240F0000B2110000E9
S1135320D20F00006210000062100000F0100000B4
S1135330B2110000B21100003E110000B6110000CD
S1135340B6110000E60F0000F40F00000210000088
S113535010100000B6110000B6110000B6110000D4
S1135360B6110000B61100001E100000B6110000B6
S1135370BA110000761000007C1000008C100000B0
S1135380BA110000BA1100009C100000BA1100000C
S1135390BA110000BA110000BA110000BA110000DD
S11353A0AE100000481200003A1200001E12000065
S11353B0101200002C1200005A12000008091108F3
S11353C0461A00009C1A00002A1B0000801B0000E3
S11353D0D61B00002C1C0000B41C0000041D00009F
S11353E09C1D00000100000054696D656F757420F8
S11353F07768696C652077616974696E6720666F88
S113540072205350414420696E666F0A00430000C5
S113541010010020232D302B2000686C4C006566A1
S113542067454647003031323334353637383941F1
S11354304243444546003031323334353637383907
S11354406162636465660000000000000000000003
S11354500000000000000000000000000000000048
S11354600000000000000000000000000000000038
S11354700000000000000000000000000000000028
S11354800000000000000000000000000000000018
S11354900000000000000000000000000000000008
S10F54A0000000000000000000000000FC
S10B54AC48ACFF7F0100000081
S11354B400A00040030703060100000000000000F0
S11354C4486B010000000000006CDC0200366E0131
S11354D400800000809FD5000488008001FF010043
S11354E400000000030001FF00800000048001FFAD
S11354F4010000FF0600000005FF078101800194FC
S11355046B83000004FF010001FF00800000000021
S113551405FF014F004E2CFF00B6B40050FF0100FC
S113552400FF00090010001100240125FF7500FF8D
S1135534014E2C48003020FF00300954003104325D
S113554403408346256000270050065100529656B6
S1135554085730610062006400650066A0FF012200
S113556432471449FF4A00FF007A0A7B007821FF7E
S1135574012334420044FF4526460540400E0620DC
S11355841A4340FF0034033544FF0131044B094CF2
S1135594054D04FF0044004520470848286700706F
S11355A404710172FE76007700FF010D01FF008093
S11355B40101F8FF018E010001FF008000000000DA
S11355C4000000004854000068540000885400009F
S11355D400000000000000000000000000000000C3
S11355E40D54000000000000000000000000000052
S11355F400000000000000000000000000000000A3
S11356040000000000000000000000000000000092
S11356140000000000000000000000000000000082
S11356241001002080B500AF30BF04231B68BD46C1
S113563480BDC046BD0000009500000000000000CD
S9032D0DC2
